{
  "contractName": "Verifies",
  "abi": [
    {
      "constant": false,
      "inputs": [
        {
          "name": "verify",
          "type": "uint256"
        }
      ],
      "name": "getVerification",
      "outputs": [],
      "payable": false,
      "stateMutability": "nonpayable",
      "type": "function"
    },
    {
      "constant": false,
      "inputs": [
        {
          "name": "addr",
          "type": "address"
        }
      ],
      "name": "getVerifies",
      "outputs": [
        {
          "name": "",
          "type": "uint256"
        }
      ],
      "payable": false,
      "stateMutability": "nonpayable",
      "type": "function"
    }
  ],
  "bytecode": "0x608060405234801561001057600080fd5b50610199806100206000396000f30060806040526004361061004c576000357c0100000000000000000000000000000000000000000000000000000000900463ffffffff16806358937cc81461005157806381ceca9c1461007e575b600080fd5b34801561005d57600080fd5b5061007c600480360381019080803590602001909291905050506100d5565b005b34801561008a57600080fd5b506100bf600480360381019080803573ffffffffffffffffffffffffffffffffffffffff169060200190929190505050610125565b6040518082815260200191505060405180910390f35b806100df33610125565b016000803373ffffffffffffffffffffffffffffffffffffffff1673ffffffffffffffffffffffffffffffffffffffff1681526020019081526020016000208190555050565b60008060008373ffffffffffffffffffffffffffffffffffffffff1673ffffffffffffffffffffffffffffffffffffffff1681526020019081526020016000205490509190505600a165627a7a72305820e88d23490eb8ccb1972ea53ed84dfa16926aca58f442331e934a54584cfc54420029",
  "source": "pragma solidity ^0.4.8;\n\ncontract Verifies {\n\tmapping (address => uint) verifies;\n\n\tfunction getVerification(uint verify) {\n\t\tverifies[msg.sender] = getVerifies(msg.sender) + verify;\n\t}\n\n\tfunction getVerifies(address addr) returns(uint) {\n    \treturn verifies[addr];\n  }\n}\n",
  "sourcePath": "/Users/shodak/Desktop/develop/eth_hack_team12/contracts/Verify.sol",
  "compiler": {
    "name": "solc",
    "version": "0.4.24+commit.e67f0147.Emscripten.clang"
  },
  "schemaVersion": "2.0.1",
  "updatedAt": "2018-07-22T05:27:51.152Z"
}